{
  "abi": [
    {
      "inputs": [],
      "name": "getGreeting",
      "outputs": [
        {
          "internalType": "string",
          "name": "",
          "type": "string"
        }
      ],
      "stateMutability": "view",
      "type": "function"
    },
    {
      "inputs": [],
      "name": "greeting",
      "outputs": [
        {
          "internalType": "string",
          "name": "",
          "type": "string"
        }
      ],
      "stateMutability": "view",
      "type": "function"
    },
    {
      "inputs": [
        {
          "internalType": "string",
          "name": "_greeting",
          "type": "string"
        }
      ],
      "name": "setGreeting",
      "outputs": [],
      "stateMutability": "nonpayable",
      "type": "function"
    }
  ],
  "bytecode": {
    "object": "0x608060405234801561001057600080fd5b50610408806100206000396000f3fe608060405234801561001057600080fd5b50600436106100415760003560e01c8063a413686214610046578063ef690cc01461005b578063fe50cc7214610079575b600080fd5b6100596100543660046101b3565b610081565b005b610063610093565b6040516100709190610225565b60405180910390f35b610063610121565b600061008e828483610311565b505050565b600080546100a090610289565b80601f01602080910402602001604051908101604052809291908181526020018280546100cc90610289565b80156101195780601f106100ee57610100808354040283529160200191610119565b820191906000526020600020905b8154815290600101906020018083116100fc57829003601f168201915b505050505081565b60606000805461013090610289565b80601f016020809104026020016040519081016040528092919081815260200182805461015c90610289565b80156101a95780601f1061017e576101008083540402835291602001916101a9565b820191906000526020600020905b81548152906001019060200180831161018c57829003601f168201915b5050505050905090565b600080602083850312156101c657600080fd5b823567ffffffffffffffff808211156101de57600080fd5b818501915085601f8301126101f257600080fd5b81358181111561020157600080fd5b86602082850101111561021357600080fd5b60209290920196919550909350505050565b600060208083528351808285015260005b8181101561025257858101830151858201604001528201610236565b506000604082860101526040601f19601f8301168501019250505092915050565b634e487b7160e01b600052604160045260246000fd5b600181811c9082168061029d57607f821691505b6020821081036102bd57634e487b7160e01b600052602260045260246000fd5b50919050565b601f82111561008e57600081815260208120601f850160051c810160208610156102ea5750805b601f850160051c820191505b81811015610309578281556001016102f6565b505050505050565b67ffffffffffffffff83111561032957610329610273565b61033d836103378354610289565b836102c3565b6000601f84116001811461037157600085156103595750838201355b600019600387901b1c1916600186901b1783556103cb565b600083815260209020601f19861690835b828110156103a25786850135825560209485019460019092019101610382565b50868210156103bf5760001960f88860031b161c19848701351681555b505060018560011b0183555b505050505056fea26469706673582212205fa6ac0c4a668d46e2b9603f4adaa62266d16f70dfe4e4e8a693aaa21c31bd4c64736f6c63430008110033",
    "linkReferences": {}
  },
  "methodIdentifiers": {
    "getGreeting()": "fe50cc72",
    "greeting()": "ef690cc0",
    "setGreeting(string)": "a4136862"
  },
  "id": 17
}