{
  "abi": [
    {
      "inputs": [],
      "stateMutability": "nonpayable",
      "type": "constructor"
    },
    {
      "inputs": [],
      "name": "Unauthorized",
      "type": "error"
    },
    {
      "inputs": [],
      "name": "count",
      "outputs": [
        {
          "internalType": "uint256",
          "name": "",
          "type": "uint256"
        }
      ],
      "stateMutability": "view",
      "type": "function"
    },
    {
      "inputs": [],
      "name": "increment",
      "outputs": [],
      "stateMutability": "nonpayable",
      "type": "function"
    },
    {
      "inputs": [],
      "name": "owner",
      "outputs": [
        {
          "internalType": "address",
          "name": "",
          "type": "address"
        }
      ],
      "stateMutability": "view",
      "type": "function"
    }
  ],
  "bytecode": {
    "object": "0x60a060405234801561001057600080fd5b5033608052608051610168610035600039600081816067015260b601526101686000f3fe608060405234801561001057600080fd5b50600436106100415760003560e01c806306661abd146100465780638da5cb5b14610062578063d09de08a146100a1575b600080fd5b61004f60005481565b6040519081526020015b60405180910390f35b6100897f000000000000000000000000000000000000000000000000000000000000000081565b6040516001600160a01b039091168152602001610059565b6100a96100ab565b005b336001600160a01b037f000000000000000000000000000000000000000000000000000000000000000016146100f3576040516282b42960e81b815260040160405180910390fd5b60008054908061010283610109565b9190505550565b600060001982141561012b57634e487b7160e01b600052601160045260246000fd5b506001019056fea264697066735822122019174694fdedc7bb42f3436f1b8af4342a6b259893cfcf3ef57d0fd35fa106ab64736f6c634300080a0033",
    "linkReferences": {}
  },
  "methodIdentifiers": {
    "count()": "06661abd",
    "increment()": "d09de08a",
    "owner()": "8da5cb5b"
  },
  "id": 17
}