{
  "abi": [
    {
      "inputs": [],
      "name": "withdraw",
      "outputs": [],
      "stateMutability": "nonpayable",
      "type": "function"
    },
    {
      "stateMutability": "payable",
      "type": "receive"
    }
  ],
  "bytecode": {
    "object": "0x6080604052348015600f57600080fd5b5060a38061001e6000396000f3fe60806040526004361060205760003560e01c80633ccfd60b14602b57600080fd5b36602657005b600080fd5b348015603657600080fd5b50603d603f565b005b60405133904780156108fc02916000818181858888f19350505050158015606a573d6000803e3d6000fd5b5056fea2646970667358221220d8265d3a4a683abe194858aa478875b77f42060c80fccaa8622d281ead597f7064736f6c634300080a0033",
    "linkReferences": {}
  },
  "methodIdentifiers": {
    "withdraw()": "3ccfd60b"
  },
  "id": 15
}